:0300000002000EED
:10000B0002005075890175A882753000E5309000AB
:10001B008493FA602C540FFDEAC4540F7005C28C04
:10002B0002004514F5222390007093F58CF521E521
:10003B0022230493F58AF520D28C1200610530013E
:10004B0017C28C0114C0E0C0D085208A85218CB2E8
:10005B0093D0D0D0E0327F027C7D7BF8DBFEDCFAE4
:10006B00DFF6DDF222FC44FCACFD09FD34FD82FD24
:10007B00C8FE06FE22FE56FE8584726253346484EB
:10008B00540464523224543C0484726253346484A6
:10009B00540464523224541C0454348864845866C7
:1000AB0052341424543834345812223242223242FD
:1000BB0052A8988C04022121413211112122413284
:1000CB001362415232422232136241513241322188
:1000DB00132121413211112122413213624152323B
:0E00EB0042223213624151324132211302008F
:00000001FF
