:0300000002000EED
:10000B00020067758901758CBD758AC075A88275EC
:10001B00200A75210A7F10C28C75A01912007E531D
:10002B00A00075A02912007E53A0002090EBD28C6B
:10003B00E520900083932410F5A012007E53A000BE
:10004B00E521900083932420F5A012007E53A0009D
:10005B007401B521DB7401B520D6010EDF14758C4C
:10006B00BD758AC07F10D5200975200AD52103756F
:10007B00210A327EF8DEFE22090807060504030278
:01008B000074
:00000001FF
