:10000000758170758001120032758038120032855A
:10001000068012003275808012003290006112005A
:100020003E7580C012003290007212003E12003203
:100030000130C2B4C2B5C2B6120058D2B62279009D
:10004000E99312004A09B400F722F580D2B4C2B590
:10005000C2B6120058D2B6227C057DFFDDFEDCFA66
:1000600022574F4E47204A4941205855414E2020A3
:10007000200030342030352031372020202020202F
:050080002020202000FB
:00000001FF
