:0300000002000EED
:10000B0002005075890175A882753000E5309000AB
:10001B008C93FA602C540FFDEAC4540F7005C28CFC
:10002B0002004514F5222390007093F58CF521E521
:10003B0022230493F58AF520D28C1200610530013E
:10004B0017C28C0114C0E0C0D085208A85218CB2E8
:10005B0093D0D0D0E0327F027C7D7BF8DBFEDCFAE4
:10006B00DFF6DDF222FC44FCACFD09FD34FD82FD24
:10007B00C8FE06FE22FE56FE85FB90FC79FCDCFEDC
:10008B006E0C0232840232740232645242540212F7
:10009B0022426282725232223C0232840232740257
:1000AB00326452425402322242628292A272526CE7
:1000BB0002328402327402322242628292A2725261
:1000CB006C627282828282827262725C02415162C3
:1000DB00626262625242523C0232C2224262564217
:1000EB00D232527292827282A692A2660C02328431
:1000FB0002327402326452425402122242628272FF
:10010B005232223C02328402327402326452425422
:0D011B0002322242628292A272526C0400F3
:00000001FF
