:0300000002000EED
:10000B0002005075890175A882753000E5309000AB
:10001B008E93FA602C540FFDEAC4540F7005C28CFA
:10002B0002004514F5222390007093F58CF521E521
:10003B0022230493F58AF520D28C1200610530013E
:10004B0017C28C0114C0E0C0D085208A85218CB2E8
:10005B0093D0D0D0E0327F027CBB7BF8DBFEDCFAA6
:10006B00DFF6DDF222FA15FA67FB04FB90FC0CFCC1
:10007B0044FCACFD09FD34FD82FDC8FE06FE22FEEC
:10008B0056FE85A2B2D2B2A4B2D2B2A2827288724A
:10009B0082A282726242623838A402B2A484728253
:1000AB0072627284726462123402423838440232D1
:1000BB004464728272627284A2727482A402B2A8C5
:1000CB00A8B2B4A2848272627282A28872746242F3
:1000DB00323262787882847282A28472827262482F
:1000EB0032A282F2A2B282726868B2B2B2A28284E7
:1000FB0002727462423242627878A2B2A272828435
:10010B00827274624464A8A402A2A2B1A182A2B4B6
:10011B00B2C2A2B2A282788472624402627281710C
:0E012B0062728402A2B402827482726868005A
:00000001FF
