:100000007581707580011200357580381200357564
:10001000800F120035758006120035758080120041
:10002000359000641200417580C012003590007553
:100030001200410133C2B5C2B6C2B712005BD2B7DB
:10004000227900E99312004D09B400F722F580D21D
:10005000B5C2B6C2B712005BD2B7227C057DFFDD08
:10006000FEDCFA22574F4E47204A4941205855415D
:100070004E2030350054584D203034204C4A4E200C
:08008000313720202020200070
:00000001FF
